:020000040800F2
:1000000070040020450100080F070008550600088D
:100010000D070008FF020008230E00080000000082
:10002000000000000000000000000000490B000874
:100030005905000800000000150B0008F50B00082A
:100040005F0100085F0100085F0100085F01000810
:100050005F0100085F0100085F0100085F01000800
:100060005F0100085F0100085F0100085F010008F0
:100070005F0100085F0100085F0100085F010008E0
:100080005F0100085F0100085F0100085F010008D0
:100090005F0100085F0100085F0100085F010008C0
:1000A0005F0100085F0100085F0100085F010008B0
:1000B0005F0100085F0100085F0100085F010008A0
:1000C0005F0100085F0100085F0100085F01000890
:1000D0005F0100088D0D00085F0100085F01000846
:1000E0005F0100085F0100085F0100085F01000870
:1000F0005F0100085F0100085F0100085F01000860
:100100005F0100085F0100085F0100085F0100084F
:100110005F0100085F0100085F0100085F0100083F
:100120005F0100085F0100085F0100085F0100082F
:10013000DFF80CD000F0C2F800480047450E000878
:10014000700400200648804706480047FEE7FEE7A7
:10015000FEE7FEE7FEE7FEE7FEE7FEE7FEE7FEE777
:10016000F90B00083101000870B521F0004303438A
:100170000CD0C1F30A550024D5EB040564EB04034D
:10018000D617AD1AB34102DB0020014670BD20181E
:1001900041EB025170BD0EB540F233410291002196
:1001A000CDE900110A460B4600F03AF803B000BD55
:1001B000C1F30A5210B5C1F3130140F2FF3341F409
:1001C00080119A4201DA002010BD40F233439A4276
:1001D000A2F2334203DC524200F003F810BD90401B
:1001E00010BD202A04DB203A21FA02F000217047DA
:1001F00021FA02F3D040C2F120029140084319468F
:10020000704710B5141E73F1000408DA401C41F168
:10021000000192185B411A4301D120F0010010BD8A
:100220002DE9F04D92469B4611B1B1FA81F202E000
:10023000B0FA80F22032904600F052F804460F46A1
:1002400040EA0A0041EA0B0153465A46084313D0DC
:10025000114653EA010019D0C8F140025046FFF799
:10026000C0FF05460E4650465946424600F038F853
:10027000084305D0012004E020463946BDE8F08D52
:100280000020054346EAE0762C4337430A9863058D
:10029000E40AA0EB08000022FD0A44EA47540A30B1
:1002A00002D500200146E9E7010510196941DDE9A1
:1002B000084500196941BDE8F04DA2E7064C074D1D
:1002C00006E0E06840F0010394E807009847103426
:1002D000AC42F6D3FFF730FFC4140008E414000862
:1002E000202A04DB203A00FA02F1002070479140F6
:1002F000C2F1200320FA03F3194390407047FEE750
:1003000070B51A48016821F00F010160016841F0E1
:10031000080101600024164D04E0641CA4B2012011
:1003200000F031F9D5F8200110B1C82CF5D301E067
:10033000C82C02D3022301220DE0002404E0641C37
:10034000A4B2012000F01FF9D5F8200148B1F02C2B
:100350000AD302231A460121032000F019FB0120D1
:1003600070BDF02CEBD3F4E7002070BD0408014011
:100370000000214270B500F0B1F8142000F0EDF853
:1003800000F08CF8FFF7BCFFCC2000F0B5F8BE20E1
:1003900000F0B2F800F072F8044600F06FF8072899
:1003A00006D9E143C043491CC0B2CCB2002500E0ED
:1003B00001254FF6FF7101EA0020204480B2FFF7CB
:1003C000EAFE6FF00302FFF7CFFEFFF7F1FE80B207
:1003D0000DB100B270BD4042FBE7000038B501210D
:1003E000042000F0A5FB4FF48074ADF8004010200D
:1003F0008DF803000320084D8DF802006946284659
:1004000000F0D1F82146284600F01DF900F046F82A
:10041000FFF776FF38BD00000008014070B5154CAD
:10042000206820F00F002060206840F0030020606A
:10043000114D0020C5F8A001022005F5D07500F08F
:10044000A2F801202860206820F00F0020602068BA
:1004500040F0080020600C2000F095F855F8800C62
:1004600008B1012400E00024322000F08CF820467E
:1004700070BD0000040801400000214270B5002555
:100480000124FFF7CBFFC001641C40EA5500E4B231
:10049000C5B2082CF5D9284670BD00000D4810B52E
:1004A000016821F00F010160016841F00301016062
:1004B000094C0020C4F8A00140F2EE2004F5D074ED
:1004C00000F061F801202060BDE810400F2000F02E
:1004D0005AB80000040801400000214210B5FFF79F
:1004E000DDFFFFF70DFFCC2000F006F8BDE810405F
:1004F000442000F001B800002DE9F0410546144801
:10050000016821F00F010160016841F00301016001
:100510000124104E0027A04615F0010F4FEA5505A3
:10052000C6F8A07106D0022000F02DF8C6F8A08110
:100530003C2005E03C2000F026F8C6F8A08102200F
:1005400000F021F8641CE4B2082CE5D9BDE8F08184
:100550000408014000002142704700B502464FF4F4
:100560007A7302E0184600F00EF8521EFAD200BD6F
:1005700030B504464FF47A7502E02846FFF7EDFFE8
:10058000641EFAD230BD00EBC000C1004FF0E02085
:10059000416100218161052101610169C903FCD527
:1005A000042101617047F0B5CC78002204F00F03FC
:1005B000E40601D58C7823430C784FF00F0C14F02F
:1005C000FF0F4FF0010E1BD005680E880EFA02F4E3
:1005D0002640A64210D196000CFA06F725EA070736
:1005E00003FA06F5CE783D43282E02D0482E02D0DD
:1005F00002E0446100E00461521C082AE5D3056072
:100600000A88FF2A1CD94468002202F108060EFA63
:1006100006F50E882E40AE420ED196000CFA06F773
:10062000BC4303FA06F7CE783C43282E00D145613F
:10063000CE78482E00D10561521C082AE5D34460CB
:10064000F0BD41617047016170470AB101617047B7
:1006500041617047FEE7000038B50121102000F02D
:1006600067FA10208DF803004402ADF80040032023
:10067000054D8DF8020069462846FFF794FF214694
:100680002846FFF7E0FF38BD001001404FF400514D
:100690000148FFF7D6BF00000010014008B5012156
:1006A000042000F045FA10208DF803003020ADF84A
:1006B000000003208DF8020069460248FFF773FF2F
:1006C00008BD00000008014070B50F4E04004FF057
:1006D000804509D410213046FFF7B5FF2021304670
:1006E000FFF7AFFFA1B209E020213046FFF7ABFFD3
:1006F00010213046FFF7A5FF604281B22846BDE8D1
:10070000704000F0F3BA000000080140FEE77047B7
:1007100070B500250021284600F0F5F800240020DF
:1007200000F0A6F9641CE4B2802CF8D36D1CEDB285
:10073000082DEFD370BD0000F8B50121082000F0AE
:10074000F7F914208DF8030003208DF802000D4EF8
:100750004FF48074ADF8004069463046FFF723FF40
:100760006500ADF8005069463046FFF71CFF0122D6
:1007700021463046FFF769FF012229463046FFF740
:1007800064FFF8BD000C01402DE9F047144E002431
:1007900007464FF080084FF40079B51528FA04F2A7
:1007A0003A4049463046FFF750FF0122294630467D
:1007B000FFF74BFF002229463046FFF746FF641C37
:1007C000E4B2082CEAD3012229463046FFF73DFF68
:1007D00029463046BDE8F0470022FFF736BF00004B
:1007E000000C014070B501220B4D540221462846F1
:1007F000FFF72BFF0122160231462846FFF725FF9F
:10080000002221462846FFF720FF31462846BDE852
:1008100070400022FFF719BF000C014070B50A4D6F
:100820004FF40074002221462846FFF70EFF0122F4
:1008300011022846FFF709FF21462846BDE870400F
:100840000122FFF702BF0000000C014010B500219B
:100850004FF47A720020401C9042FCD3491C914214
:10086000F8D3FFF769FFAE2000F0F1F8D52000F0D3
:10087000EEF8802000F0EBF8A82000F0E8F83F2028
:1008800000F0E5F8D32000F0E2F8002000F0DFF8F7
:10089000402000F0DCF8A12000F0D9F8C82000F0DA
:1008A000D6F8DA2000F0D3F8122000F0D0F881203A
:1008B00000F0CDF8CF2000F0CAF8D92000F0C7F83A
:1008C000F12000F0C4F8DB2000F0C1F8302000F087
:1008D000BEF8A42000F0BBF8A62000F0B8F88D20E8
:1008E00000F0B5F8142000F0B2F8AF2000F0AFF837
:1008F000BDE81040FFF70CBF0346012000E058435D
:10090000491EFCD2704710B50C4640F0B00000F014
:100910009EF8102040EA141000F099F804F00F003F
:10092000BDE8104000F093B82DE9F0410746CE0035
:100930004000083E801E15464FF0FF38F1B2C0B2AD
:10094000FFF7E1FF1148002400EB05152819A0F579
:10095000805090F8000E00F08BF8641CE4B2082C74
:10096000F4D308EB4700F1B2C0B2FFF7CCFF00248C
:100970002819A0F5805090F8080E00F079F8641C52
:10098000E4B2082CF4D3BDE8F0810000D40E0008D6
:100990002DE9F0471D4616460F46814600244FF0CC
:1009A0000A0812E0291B0A20491EFFF7A5FFB6FB23
:1009B000F0F1B1FBF8F208FB12123819C1B2484647
:1009C0003032FFF7B1FF641CE4B2AC42EAD3BDE8B9
:1009D000F0872DE9F0471E4615000F46814603D4E7
:1009E0002B22FFF7A1FF03E02D22FFF79DFF6D42B1
:1009F00000244FF00A0813E0311B0A20491EFFF7BC
:100A00007BFFB5FBF0F1B1FBF8F208FB12123819CD
:100A1000401CC1B248463032FFF786FF641CE4B286
:100A2000B442E9D3BDE8F0872DE9F04115460E4602
:100A30000746002406E03019C1B23846FFF774FFBC
:100A4000641CE4B22A5D002AF5D1BDE8F08110B53E
:100A50000446FFF7C7FE7820FFF796FE0020FFF759
:100A600093FE2046FFF790FEBDE81040FFF7D6BE8C
:100A700010B50446FFF7B6FE7820FFF785FE40204C
:100A8000FFF782FE2046FFF77FFEBDE81040FFF72C
:100A9000C5BE000030B589B00121042000F048F83F
:100AA00018208DF81F000420ADF81C0003208DF8DD
:100AB0001E0007A91648FFF776FD0121084600F041
:100AC0002BF800246320ADF81640ADF81240ADF8C5
:100AD0001400ADF810004FF0804504A9284600F03E
:100AE00007F9684600F0F8F86020ADF80000012032
:100AF000ADF80200ADF80840ADF80640694628465A
:100B000000F0ACF80121284600F09EF809B030BD95
:100B10000008014070470000044A0029D16901D053
:100B2000014300E08143D1617047000000100240A2
:100B3000044A0029916901D0014300E08143916199
:100B40007047000000100240704700000CB5002202
:100B5000264800920192016841F4803101604FF40F
:100B6000A063016801F4003101910099491C0091D2
:100B7000019911B900999942F3D10168890333D5DC
:100B8000012101911A490A6842F010020A600A68BC
:100B900022F003020A600A6842F002020A60416819
:100BA000416041684160416841F480614160416851
:100BB00021F47C114160416841F4E8114160016811
:100BC00041F08071016001688901FCD5416821F024
:100BD00003014160416841F0020141604168C1F395
:100BE00081010229FAD10CBD01920CBD0010024016
:100BF00000200240704700000F4810B5016841F026
:100C00000101016041680D4A1140416001680C4AD0
:100C100011400160016821F480210160416821F4E4
:100C2000FE0141604FF41F018160FFF78FFF05490E
:100C30004FF00060086010BD001002400000FFF897
:100C4000FFFFF6FE08ED00E00029018802D041F028
:100C5000010101E021F001010180704770B5028CB3
:100C600022F480720284028C8388848B0D8824F0A5
:100C7000730425430E894FF6FF7422F4007204EAD0
:100C8000062616434A8804EA02223243104EB04236
:100C900002D0104EB04215D122F400664A8923F4E6
:100CA000405304EA0222324322F480668A8804EA2E
:100CB000022232438E8904EA06161E43CB8904EAD7
:100CC0000313334383808583C9888187028470BD81
:100CD000002C0140003401400021018041808180CE
:100CE000C180018141818181C181704781877047C5
:100CF00030B502881B4C1C4DA0420DD0A8420BD031
:100D0000B0F1804F08D0194B984205D0184B98424B
:100D100002D0184B984203D122F070034A881A433C
:100D2000154B984206D0154B984203D022F44073DD
:100D3000CA881A4302808A8882850A880285A0426E
:100D40000AD0A84208D00E4A904205D00D4A9042DF
:100D500002D00D4A904201D1097A01860121818297
:100D600030BD0000002C0140003401400004004070
:100D700000080040000C004000100040001400403B
:100D800000400140004401400048014070B51A4C49
:100D900040F225552946204600F038F8012829D18F
:100DA000204600F03AF81549C2B200260B7801201F
:100DB00023B1012B07D0022B12D015E0AA2A13D1A0
:100DC00008704E7010E00D4B4878DB1C1A54401C24
:100DD000C0B248701A78824206D10220087003E03F
:100DE000552A01D10E70887029462046BDE8704012
:100DF00000F006B870BD000000380140020000207D
:100E00000A0A01219140C94301807047024600202F
:100E100012880A4200D0012070478088C0F3080081
:100E20007047FEE702E008C8121F08C1002AFAD185
:100E300070477047002001E001C1121F002AFBD15A
:100E400070470000FFF708FCFFF724FEFFF7FEFCE9
:100E5000FFF724FC07E0012115A20846FFF7E4FD97
:100E60000120FFF785FBFFF7B9FA0028F3D1012134
:100E700013A20846FFF7D8FDFFF708FC0025144C25
:100E8000FFF778FA20800246032301210220FFF7B2
:100E9000A0FDB4F90000192800D22580B4F90000A3
:100EA0004000FFF711FC0A20FFF757FBE8E70000BE
:100EB00044533138423230204552524F52000000E4
:100EC00044533138423230205245414459000000E9
:100ED00000000020000000000000000000000000F2
:100EE00000000000000000F80000000000000033D7
:100EF0003000000000100C06100C0600000000007E
:100F00000000000040C07840C0784000043F040466
:100F10003F040400007088FC08300000001820FF27
:100F2000211E0000F008F000E018000000211C0362
:100F30001E211E0000F00888700000001E212324DE
:100F40001927211010160E000000000000000000FC
:100F500000000000000000E018040200000000078C
:100F60001820400000020418E00000000040201893
:100F700007000000404080F0804040000202010F66
:100F800001020200000000F0000000000101011F4A
:100F900001010100000000000000000080B07000AE
:100FA000000000000000000000000000000101013E
:100FB00001010101000000000000000000303000CD
:100FC00000000000000000008060180400601806A7
:100FD0000100000000E010080810E000000F1020E1
:100FE00020100F00001010F8000000000020203F2B
:100FF00020200000007008080888700000302824B5
:101000002221300000300888884830000018202055
:1010100020110E000000C02010F80000000704247A
:10102000243F240000F808888808080000192120BF
:1010300020110E0000E0108888180000000F112019
:1010400020110E0000380808C83808000000003FD2
:10105000000000000070880808887000001C222131
:1010600021221C0000E010080810E00000003122DE
:1010700022110F00000000C0C0000000000000307E
:1010800030000000000000800000000000008060D0
:101090000000000000008040201008000001020451
:1010A0000810200040404040404040000404040438
:1010B00004040400000810204080000000201008F4
:1010C00004020100007048080808F0000000003029
:1010D00036010000C030C828E810E00007182724B7
:1010E00023140B000000C038E0000000203C230265
:1010F0000227382008F8888888700000203F2020C8
:1011000020110E00C03008080808380007182020F9
:101110002010080008F808080810E000203F2020F0
:1011200020100F0008F88888E8081000203F2020D1
:101130002320180008F88888E8081000203F2000C5
:1011400003000000C03008080838000007182020FD
:10115000221E020008F808000008F808203F2101BC
:1011600001213F20000808F8080800000020203F67
:101170002020000000000808F8080800C0808080D7
:101180007F00000008F888C028180800203F2001D0
:101190002638200008F8080000000000203F20202A
:1011A0002020300008F8F800F8F80800203F003F41
:1011B000003F200008F830C00008F808203F200059
:1011C00007183F00E01008080810E0000F1020206A
:1011D00020100F0008F808080808F000203F21013F
:1011E00001010000E01008080810E0000F18242496
:1011F00038504F0008F8888888887000203F200009
:10120000030C3020007088080808380000382021BE
:1012100021221C00180808F8080818000000203FC8
:101220002000000008F808000008F808001F20202F
:1012300020201F000878880000C838080000073800
:101240000E010000F80800F80008F800033C070051
:10125000073C0300081868808068180820302C03B9
:10126000032C30200838C800C83808000000203F90
:101270002000000010080808C8380800203826217F
:1012800020201800000000FE020202000000007F83
:1012900040404000000C30C0000000000000000191
:1012A0000638C00000020202FE000000004040407C
:1012B0007F000000000004020202040000000000A1
:1012C000000000000000000000000000808080801E
:1012D0008080808000020204000000000000000006
:1012E000000000000000808080800000001924229F
:1012F00022223F2008F8008080000000003F1120DB
:1013000020110E000000008080800000000E1120DF
:1013100020201100000000808088F800000E1120BD
:1013200020103F200000808080800000001F2222CB
:1013300022221300008080F0888888180020203F37
:10134000202000000000808080808000006B94944A
:101350009493600008F8008080800000203F210006
:1013600000203F2000809898000000000020203FCF
:1013700020200000000000809898000000C08080BD
:10138000807F000008F8000080808000203F240259
:101390002D302000000808F8000000000020203F49
:1013A000202000008080808080808000203F2000FE
:1013B0003F20003F8080008080800000203F21008F
:1013C00000203F200000808080800000001F20203F
:1013D00020201F00808000808000000080FFA1206E
:1013E00020110E000000008080808000000E11207F
:1013F00020A0FF80808080008080800020203F210E
:1014000020000100000080808080800000332424C0
:1014100024241900008080E0808000000000001F6C
:10142000202000008080000000808000001F20201D
:1014300020103F20808080000080808000010E30DE
:101440000806010080800080008080800F300C033F
:101450000C300F0000808000808080000020312E42
:101460000E312000808080000080808080818E701E
:101470001806010000808080808080000021302CD0
:101480002221300000000000807C020200000000E9
:10149000003F404000000000FF000000000000008E
:1014A000FF0000000002027C800000000040403F7E
:1014B0000000000000060101020204040000000018
:1014C00000000000E4140008000000206C00000090
:1014D000240E0008501500086C00002004040000D1
:1014E000340E0008000000000002000000000000B0
:1014F00000000000000000000000000000000000EC
:1015000000000000000000000000000000000000DB
:1015100000000000000000000000000000000000CB
:1015200000000000000000000000000000000000BB
:1015300000000000000000000000000000000000AB
:10154000000000000000000000000000000000009B
:0400000508000131BD
:00000001FF
