:1002C6000C0A20202020DF43000000000000101749
:1002D60020202054204D6F6E69746F72000000005C
:0C03E0007F147EF8DEFE7EF8DEFEDFF605
:0103EC0022EE
:040408007F12DFFE82
:01040C0022CD
:0803F9007F037EFCDEFEDFFA4B
:0104010022D8
:0F03D0007580FFD2A1C2A0D2A2AF80C2A2C2A1EB
:0103DF0022FB
:10039700AE071203D0EF20E7F9C2A1C2A08E80D228
:0403A700A2C2A2222A
:10035600AE071203D0EF20E7F9C2A1D2A08E80D259
:06036600A2C2A2C2A02207
:1002E7001203E07F381203971204087F0C1203975A
:1002F7001204087F011203971203F97F060203977E
:10033F00AC07ED7007EC4480FF120397BD0107EC8B
:07034F0044C0FF12039722D6
:1003AB001200ACFF600C120356740129F9E43AFAFF
:0303BB0080EE22AF
:0604020012033F0203ABF0
:100003007D2BE528FEE527FBEBFFEE30E70F7D2D8B
:10001300EFF4FFEEF4FEEF2401FFE43EFEEF78047D
:10002300CEA2E713CE13D8F8F516C394C9748094FF
:100033007F50037516C9E516D3947D400375167D6D
:100043008D0AAF167E001203EDC3EF9464EE648055
:1000530094804015AF167E001203ED7C007D641280
:1000630000C5EF2430F50B8003750B20AF167E001F
:100073001203ED7C007D641200C57E007F0ACFCDA4
:10008300CFCECCCE1200C5EF2430F50CAF167E00D8
:100093001203ED7C007D0A1200C5ED2430F50D75C9
:0800A3000EDF750F43E4F510B8
:0100AB002232
:0703BE001203257F507E00B1
:0B03C500EF1FAC0670011E4C70F6220A
:1002A200E4FDD2977F08FE1203C5C2971203C1D2A2
:1002B200977F0E7E001203C5A297E433FD7F147E62
:0402C200000203C56E
:10030700E4FB7D08C297EBC313FBD29730970343F7
:0D03170003807F047E001203C5DDE9AF0303
:0103240022B6
:02032500AD0722
:100327007B08C297ED1392977F057E001203C5D213
:0703370097EDC313FDDBEBA2
:01033E00229C
:10027A001203C11202A27FCC1203257F441203BECD
:10028A001202A27FCC1203257FBE1203BE120307FD
:08029A008F271203078F2822B1
:07038200EC75F005A4FDFF7E
:0D038900EFD3940040077EC8DEFE1F80F316
:010396002244
:0201DC00AC076E
:1001DE00E50A642B703BECC394195005C2B6C2B746
:1001EE0022ECD394324013C2B6D2B77DFA7FFA1204
:1001FE000389C2B77D057F058031C2B6D2B712031F
:10020E0082C2B7EC75F005A4FFC374FF9FFDFF809B
:10021E001AE50AB42D18D2B6C2B7120382D2B7ECC1
:0E022E0075F005A4FFC374FF9FFDFF12038946
:01023C00229F
:10036C00EF1FAA0670011E4A600BE4FDEDC3947BDF
:05037C0050EE0D80F7BA
:010381002259
:10023D001203E012027A1202E77B007A007917E4CA
:10024D00FDFF1204027FE87E0312036C12027A7F17
:10025D00647E001203C51200037B007A00790A7DCB
:0D026D00017F04120402AF161201DC80DFD5
:03000000020150AA
:0C015000787FE4F6D8FD75812802019745
:1000AC00BB010689828A83E0225002E722BBFE0252
:0900BC00E32289828A83E4932285
:1000C500C2D5EC30E709B2D5E4C39DFDE49CFCEE56
:1000D50030E715B2D5E4C39FFFE49EFE1200FBC3D3
:1000E500E49DFDE49CFC80031200FB30D507C3E4CE
:0600F5009FFFE49EFE22C5
:0C03ED00EE30E707C3E49FFFE49EFE2211
:10015C0002023DE493A3F8E493A34003F68001F27A
:10016C0008DFF48029E493A3F85407240CC8C333A4
:10017C00C4540F4420C8834004F456800146F6DF73
:10018C00E4800B01020408102040809002C6E47E3B
:10019C00019360BCA3FF543F30E509541FFEE49368
:1001AC00A360010ECF54C025E060A840B8E493A32F
:1001BC00FAE493A3F8E493A3C8C582C8CAC583CA5A
:1001CC00F0A3C8C582C8CAC583CADFE9DEE780BE12
:0102E6000017
:1000FB00BC000BBE0029EF8DF084FFADF022E4CCE9
:10010B00F875F008EF2FFFEE33FEEC33FCEE9DECB1
:10011B00984005FCEE9DFE0FD5F0E9E4CEFD22EDF7
:10012B00F8F5F0EE8420D21CFEADF075F008EF2F41
:10013B00FFED33FD4007985006D5F0F222C398FD32
:05014B000FD5F0EA22CF
:00000001FF
